{
  "contractName": "Ny",
  "abi": [
    {
      "constant": true,
      "inputs": [],
      "name": "getUsers",
      "outputs": [
        {
          "name": "",
          "type": "address[]"
        }
      ],
      "payable": false,
      "stateMutability": "view",
      "type": "function"
    },
    {
      "constant": false,
      "inputs": [
        {
          "name": "sender",
          "type": "address"
        },
        {
          "name": "receiver",
          "type": "address"
        },
        {
          "name": "amount",
          "type": "uint256"
        }
      ],
      "name": "sendCoin",
      "outputs": [
        {
          "name": "sufficient",
          "type": "bool"
        }
      ],
      "payable": false,
      "stateMutability": "nonpayable",
      "type": "function"
    },
    {
      "constant": true,
      "inputs": [
        {
          "name": "userAddress",
          "type": "address"
        }
      ],
      "name": "getUser",
      "outputs": [
        {
          "name": "",
          "type": "string"
        },
        {
          "name": "",
          "type": "uint256"
        }
      ],
      "payable": false,
      "stateMutability": "view",
      "type": "function"
    },
    {
      "constant": false,
      "inputs": [
        {
          "name": "newAddress",
          "type": "address"
        },
        {
          "name": "name",
          "type": "string"
        }
      ],
      "name": "registerNewUser",
      "outputs": [
        {
          "name": "success",
          "type": "bool"
        }
      ],
      "payable": false,
      "stateMutability": "nonpayable",
      "type": "function"
    },
    {
      "inputs": [],
      "payable": false,
      "stateMutability": "nonpayable",
      "type": "constructor"
    }
  ],
  "bytecode": "0x6060604052341561000f57600080fd5b6103e8600160003373ffffffffffffffffffffffffffffffffffffffff1673ffffffffffffffffffffffffffffffffffffffff16815260200190815260200160002060010181905550336000806101000a81548173ffffffffffffffffffffffffffffffffffffffff021916908373ffffffffffffffffffffffffffffffffffffffff160217905550610798806100a76000396000f300606060405260043610610061576000357c0100000000000000000000000000000000000000000000000000000000900463ffffffff168062ce8e3e146100665780630b40bd88146100d05780636f77926b146101495780637cb41d3614610202575b600080fd5b341561007157600080fd5b610079610296565b6040518080602001828103825283818151815260200191508051906020019060200280838360005b838110156100bc5780820151818401526020810190506100a1565b505050509050019250505060405180910390f35b34156100db57600080fd5b61012f600480803573ffffffffffffffffffffffffffffffffffffffff1690602001909190803573ffffffffffffffffffffffffffffffffffffffff1690602001909190803590602001909190505061032a565b604051808215151515815260200191505060405180910390f35b341561015457600080fd5b610180600480803573ffffffffffffffffffffffffffffffffffffffff1690602001909190505061042b565b6040518080602001838152602001828103825284818151815260200191508051906020019080838360005b838110156101c65780820151818401526020810190506101ab565b50505050905090810190601f1680156101f35780820380516001836020036101000a031916815260200191505b50935050505060405180910390f35b341561020d57600080fd5b61027c600480803573ffffffffffffffffffffffffffffffffffffffff1690602001909190803590602001908201803590602001908080601f0160208091040260200160405190810160405280939291908181526020018383808284378201915050505050509190505061055f565b604051808215151515815260200191505060405180910390f35b61029e610673565b600280548060200260200160405190810160405280929190818152602001828054801561032057602002820191906000526020600020905b8160009054906101000a900473ffffffffffffffffffffffffffffffffffffffff1673ffffffffffffffffffffffffffffffffffffffff16815260200190600101908083116102d6575b5050505050905090565b600081600160008673ffffffffffffffffffffffffffffffffffffffff1673ffffffffffffffffffffffffffffffffffffffff16815260200190815260200160002060010154101561037f5760009050610424565b81600160008673ffffffffffffffffffffffffffffffffffffffff1673ffffffffffffffffffffffffffffffffffffffff1681526020019081526020016000206001016000828254039250508190555081600160008573ffffffffffffffffffffffffffffffffffffffff1673ffffffffffffffffffffffffffffffffffffffff16815260200190815260200160002060010160008282540192505081905550600190505b9392505050565b610433610687565b6000600160008473ffffffffffffffffffffffffffffffffffffffff1673ffffffffffffffffffffffffffffffffffffffff168152602001908152602001600020600001600160008573ffffffffffffffffffffffffffffffffffffffff1673ffffffffffffffffffffffffffffffffffffffff16815260200190815260200160002060010154818054600181600116156101000203166002900480601f01602080910402602001604051908101604052809291908181526020018280546001816001161561010002031660029004801561054f5780601f106105245761010080835404028352916020019161054f565b820191906000526020600020905b81548152906001019060200180831161053257829003601f168201915b5050505050915091509150915091565b60008083905082600160008373ffffffffffffffffffffffffffffffffffffffff1673ffffffffffffffffffffffffffffffffffffffff16815260200190815260200160002060000190805190602001906105bb92919061069b565b506103e8600160008373ffffffffffffffffffffffffffffffffffffffff1673ffffffffffffffffffffffffffffffffffffffff1681526020019081526020016000206001018190555060028054806001018281610619919061071b565b9160005260206000209001600083909190916101000a81548173ffffffffffffffffffffffffffffffffffffffff021916908373ffffffffffffffffffffffffffffffffffffffff16021790555050600191505092915050565b602060405190810160405280600081525090565b602060405190810160405280600081525090565b828054600181600116156101000203166002900490600052602060002090601f016020900481019282601f106106dc57805160ff191683800117855561070a565b8280016001018555821561070a579182015b828111156107095782518255916020019190600101906106ee565b5b5090506107179190610747565b5090565b815481835581811511610742578183600052602060002091820191016107419190610747565b5b505050565b61076991905b8082111561076557600081600090555060010161074d565b5090565b905600a165627a7a7230582026178b4e1b70b6e4b148ba751d567919907bbd3f0a67910e070c48c895473fd50029",
  "source": "pragma solidity ^0.4.4;\n\n// Simple Solidity intro/demo contract for BlockGeeks Article\ncontract Ny {\n\n  address GeektAdmin;\n  mapping(address=>User) balances;\n  address[] usersByAddress;\n\n\n  struct User {\n  string name;\n  uint balance;\n  }\n  \n  function Ny()\n  {\n  \tbalances[msg.sender].balance = 1000;\n  \tGeektAdmin = msg.sender;\n\n  }\n\n   function registerNewUser(address newAddress, string name) returns (bool success) {\n    address thisNewAddress = newAddress;\n    balances[thisNewAddress].name = name;\n    balances[thisNewAddress].balance = 1000;\n    usersByAddress.push(thisNewAddress);\n     return true;\n  \n  }\n\nfunction sendCoin(address sender,address receiver, uint amount) returns(bool sufficient) {\n\t\tif (balances[sender].balance < amount) return false;\n\t\tbalances[sender].balance -= amount;\n\t\tbalances[receiver].balance += amount;\n\t\treturn true;\n\t}\n\nfunction getUsers() constant returns (address[]) { return usersByAddress; }\n\nfunction getUser(address userAddress) constant returns (string, uint) {\n    return (balances[userAddress].name, balances[userAddress].balance);\n  }\n}\n",
  "sourcePath": "/Users/chaitanyakaul/Desktop/newBegninning/newBlockChain/contracts/Ny.sol",
  "compiler": {
    "name": "solc",
    "version": "0.4.18+commit.9cf6e910.Emscripten.clang"
  },
  "schemaVersion": "1.0.1",
  "updatedAt": "2018-01-13T16:36:54.554Z"
}