{
  "contractName": "someSeriousStuff",
  "abi": [
    {
      "constant": true,
      "inputs": [],
      "name": "currentStage",
      "outputs": [
        {
          "name": "",
          "type": "uint8"
        }
      ],
      "payable": false,
      "stateMutability": "view",
      "type": "function"
    },
    {
      "constant": false,
      "inputs": [],
      "name": "viewRequest",
      "outputs": [
        {
          "name": "",
          "type": "address"
        },
        {
          "name": "",
          "type": "string"
        },
        {
          "name": "",
          "type": "uint256"
        },
        {
          "name": "",
          "type": "uint256"
        },
        {
          "name": "",
          "type": "uint256"
        }
      ],
      "payable": false,
      "stateMutability": "nonpayable",
      "type": "function"
    },
    {
      "constant": false,
      "inputs": [],
      "name": "getUserDetail",
      "outputs": [
        {
          "name": "",
          "type": "string"
        },
        {
          "name": "",
          "type": "string"
        },
        {
          "name": "",
          "type": "uint256"
        },
        {
          "name": "",
          "type": "string"
        },
        {
          "name": "",
          "type": "uint256"
        }
      ],
      "payable": false,
      "stateMutability": "nonpayable",
      "type": "function"
    },
    {
      "constant": true,
      "inputs": [],
      "name": "owner",
      "outputs": [
        {
          "name": "",
          "type": "address"
        }
      ],
      "payable": false,
      "stateMutability": "view",
      "type": "function"
    },
    {
      "constant": false,
      "inputs": [
        {
          "name": "_name",
          "type": "string"
        }
      ],
      "name": "registerNewUser",
      "outputs": [
        {
          "name": "success",
          "type": "bool"
        }
      ],
      "payable": false,
      "stateMutability": "nonpayable",
      "type": "function"
    },
    {
      "constant": false,
      "inputs": [
        {
          "name": "_user",
          "type": "address"
        },
        {
          "name": "_amount",
          "type": "uint256"
        },
        {
          "name": "_from",
          "type": "uint256"
        },
        {
          "name": "_to",
          "type": "uint256"
        }
      ],
      "name": "makeRequest",
      "outputs": [],
      "payable": false,
      "stateMutability": "nonpayable",
      "type": "function"
    },
    {
      "constant": true,
      "inputs": [],
      "name": "currentStageTime",
      "outputs": [
        {
          "name": "",
          "type": "uint256"
        }
      ],
      "payable": false,
      "stateMutability": "view",
      "type": "function"
    },
    {
      "constant": false,
      "inputs": [
        {
          "name": "approved",
          "type": "bool"
        }
      ],
      "name": "approveRequest",
      "outputs": [],
      "payable": false,
      "stateMutability": "nonpayable",
      "type": "function"
    },
    {
      "inputs": [],
      "payable": false,
      "stateMutability": "nonpayable",
      "type": "constructor"
    }
  ],
  "bytecode": "0x6060604052426007556000600860006101000a81548160ff0219169083600181111561002757fe5b0217905550341561003757600080fd5b336000806101000a81548173ffffffffffffffffffffffffffffffffffffffff021916908373ffffffffffffffffffffffffffffffffffffffff1602179055506111ef806100866000396000f30060606040526004361061008e576000357c0100000000000000000000000000000000000000000000000000000000900463ffffffff1680635bf5d54c146100935780636ac5ed29146100ca5780638b326ec2146101a05780638da5cb5b14610314578063995ac4fd14610369578063ab05e59a146103de578063dd16df7c14610432578063ebf6bb851461045b575b600080fd5b341561009e57600080fd5b6100a6610480565b604051808260018111156100b657fe5b60ff16815260200191505060405180910390f35b34156100d557600080fd5b6100dd610493565b604051808673ffffffffffffffffffffffffffffffffffffffff1673ffffffffffffffffffffffffffffffffffffffff16815260200180602001858152602001848152602001838152602001828103825286818151815260200191508051906020019080838360005b83811015610161578082015181840152602081019050610146565b50505050905090810190601f16801561018e5780820380516001836020036101000a031916815260200191505b50965050505050505060405180910390f35b34156101ab57600080fd5b6101b361064a565b60405180806020018060200186815260200180602001858152602001848103845289818151815260200191508051906020019080838360005b838110156102075780820151818401526020810190506101ec565b50505050905090810190601f1680156102345780820380516001836020036101000a031916815260200191505b50848103835288818151815260200191508051906020019080838360005b8381101561026d578082015181840152602081019050610252565b50505050905090810190601f16801561029a5780820380516001836020036101000a031916815260200191505b50848103825286818151815260200191508051906020019080838360005b838110156102d35780820151818401526020810190506102b8565b50505050905090810190601f1680156103005780820380516001836020036101000a031916815260200191505b509850505050505050505060405180910390f35b341561031f57600080fd5b6103276109f0565b604051808273ffffffffffffffffffffffffffffffffffffffff1673ffffffffffffffffffffffffffffffffffffffff16815260200191505060405180910390f35b341561037457600080fd5b6103c4600480803590602001908201803590602001908080601f01602080910402602001604051908101604052809392919081815260200183838082843782019150505050505091905050610a15565b604051808215151515815260200191505060405180910390f35b34156103e957600080fd5b610430600480803573ffffffffffffffffffffffffffffffffffffffff16906020019091908035906020019091908035906020019091908035906020019091905050610cbb565b005b341561043d57600080fd5b610445610e0e565b6040518082815260200191505060405180910390f35b341561046657600080fd5b61047e60048080351515906020019091905050610e14565b005b600860009054906101000a900460ff1681565b600061049d61108a565b60008060008060009054906101000a900473ffffffffffffffffffffffffffffffffffffffff168073ffffffffffffffffffffffffffffffffffffffff163373ffffffffffffffffffffffffffffffffffffffff161415156104fe57600080fd5b600360000160009054906101000a900473ffffffffffffffffffffffffffffffffffffffff1660016000600360000160009054906101000a900473ffffffffffffffffffffffffffffffffffffffff1673ffffffffffffffffffffffffffffffffffffffff1673ffffffffffffffffffffffffffffffffffffffff1681526020019081526020016000206000016003600101546003600201546003800154838054600181600116156101000203166002900480601f0160208091040260200160405190810160405280929190818152602001828054600181600116156101000203166002900480156106315780601f1061060657610100808354040283529160200191610631565b820191906000526020600020905b81548152906001019060200180831161061457829003601f168201915b5050505050935095509550955095509550509091929394565b61065261108a565b61065a61108a565b600061066461108a565b600080339050600160008273ffffffffffffffffffffffffffffffffffffffff1673ffffffffffffffffffffffffffffffffffffffff168152602001908152602001600020600001600160008373ffffffffffffffffffffffffffffffffffffffff1673ffffffffffffffffffffffffffffffffffffffff16815260200190815260200160002060010160006002811015156106fc57fe5b60020201600001600160008473ffffffffffffffffffffffffffffffffffffffff1673ffffffffffffffffffffffffffffffffffffffff168152602001908152602001600020600101600060028110151561075357fe5b6002020160010154600160008573ffffffffffffffffffffffffffffffffffffffff1673ffffffffffffffffffffffffffffffffffffffff16815260200190815260200160002060010160016002811015156107ab57fe5b60020201600001600160008673ffffffffffffffffffffffffffffffffffffffff1673ffffffffffffffffffffffffffffffffffffffff168152602001908152602001600020600101600160028110151561080257fe5b6002020160010154848054600181600116156101000203166002900480601f01602080910402602001604051908101604052809291908181526020018280546001816001161561010002031660029004801561089f5780601f106108745761010080835404028352916020019161089f565b820191906000526020600020905b81548152906001019060200180831161088257829003601f168201915b50505050509450838054600181600116156101000203166002900480601f01602080910402602001604051908101604052809291908181526020018280546001816001161561010002031660029004801561093b5780601f106109105761010080835404028352916020019161093b565b820191906000526020600020905b81548152906001019060200180831161091e57829003601f168201915b50505050509350818054600181600116156101000203166002900480601f0160208091040260200160405190810160405280929190818152602001828054600181600116156101000203166002900480156109d75780601f106109ac576101008083540402835291602001916109d7565b820191906000526020600020905b8154815290600101906020018083116109ba57829003601f168201915b5050505050915095509550955095509550509091929394565b6000809054906101000a900473ffffffffffffffffffffffffffffffffffffffff1681565b60008033905082600160008373ffffffffffffffffffffffffffffffffffffffff1673ffffffffffffffffffffffffffffffffffffffff1681526020019081526020016000206000019080519060200190610a7192919061109e565b5060408051908101604052806040805190810160405280600781526020017f616e6e75697479000000000000000000000000000000000000000000000000008152508152602001620186a0815250600160008373ffffffffffffffffffffffffffffffffffffffff1673ffffffffffffffffffffffffffffffffffffffff1681526020019081526020016000206001016000600281101515610b0f57fe5b600202016000820151816000019080519060200190610b2f92919061111e565b506020820151816001015590505060408051908101604052806040805190810160405280600981526020017f6c6f6e67207465726d00000000000000000000000000000000000000000000008152508152602001611388815250600160008373ffffffffffffffffffffffffffffffffffffffff1673ffffffffffffffffffffffffffffffffffffffff1681526020019081526020016000206001016001600281101515610bd957fe5b600202016000820151816000019080519060200190610bf992919061111e565b5060208201518160010155905050806002846040518082805190602001908083835b602083101515610c405780518252602082019150602081019050602083039250610c1b565b6001836020036101000a038019825116818451168082178552505050505050905001915050908152602001604051809103902060006101000a81548173ffffffffffffffffffffffffffffffffffffffff021916908373ffffffffffffffffffffffffffffffffffffffff1602179055506001915050919050565b600080806001811115610cca57fe5b600860009054906101000a900460ff166001811115610ce557fe5b141515610cf157600080fd5b859150600085600160008573ffffffffffffffffffffffffffffffffffffffff1673ffffffffffffffffffffffffffffffffffffffff16815260200190815260200160002060010186600281101515610d4657fe5b60020201600101540310151515610d5c57600080fd5b6080604051908101604052808773ffffffffffffffffffffffffffffffffffffffff16815260200186815260200185815260200184815250600360008201518160000160006101000a81548173ffffffffffffffffffffffffffffffffffffffff021916908373ffffffffffffffffffffffffffffffffffffffff160217905550602082015181600101556040820151816002015560608201518160030155905050610e06611022565b505050505050565b60075481565b6000809054906101000a900473ffffffffffffffffffffffffffffffffffffffff168073ffffffffffffffffffffffffffffffffffffffff163373ffffffffffffffffffffffffffffffffffffffff16141515610e7057600080fd5b6001806001811115610e7e57fe5b600860009054906101000a900460ff166001811115610e9957fe5b141515610ea557600080fd5b8215610fd15760036001015460016000600360000160009054906101000a900473ffffffffffffffffffffffffffffffffffffffff1673ffffffffffffffffffffffffffffffffffffffff1673ffffffffffffffffffffffffffffffffffffffff168152602001908152602001600020600101600360020154600281101515610f2a57fe5b600202016001016000828254039250508190555060036001015460016000600360000160009054906101000a900473ffffffffffffffffffffffffffffffffffffffff1673ffffffffffffffffffffffffffffffffffffffff1673ffffffffffffffffffffffffffffffffffffffff1681526020019081526020016000206001016003800154600281101515610fbc57fe5b60020201600101600082825401925050819055505b6003600080820160006101000a81549073ffffffffffffffffffffffffffffffffffffffff0219169055600182016000905560028201600090556003820160009055505061101d611022565b505050565b60006001600860009054906101000a900460ff16600181111561104157fe5b019050600181111561105257600090505b80600181111561105e57fe5b600860006101000a81548160ff0219169083600181111561107b57fe5b02179055504260078190555050565b602060405190810160405280600081525090565b828054600181600116156101000203166002900490600052602060002090601f016020900481019282601f106110df57805160ff191683800117855561110d565b8280016001018555821561110d579182015b8281111561110c5782518255916020019190600101906110f1565b5b50905061111a919061119e565b5090565b828054600181600116156101000203166002900490600052602060002090601f016020900481019282601f1061115f57805160ff191683800117855561118d565b8280016001018555821561118d579182015b8281111561118c578251825591602001919060010190611171565b5b50905061119a919061119e565b5090565b6111c091905b808211156111bc5760008160009055506001016111a4565b5090565b905600a165627a7a723058207f471268c09aa0b1100d51cca75293df5487b761b751bac5e0ddfbf2f3ebb2ed0029",
  "source": "pragma solidity ^0.4.4;\n\ncontract someSeriousStuff {\n\n  address public owner;\n  //address[] public clients;\n  mapping(address=>User) clients;\n  mapping(string=>address) someTest;\n\n  struct Account{\n    string name;\n    uint amount;\n  }\n\n  struct User{\n    string name;\n    //can include multiple properties like policy_holder_number and other user detail\n    Account[2] accounts;\n  }\n\n  struct RequestTransfer{\n    address userAddress;\n    uint amount;\n    uint from;\n    uint to;\n  }\n\n  RequestTransfer request;\n\n  function someSeriousStuff(){\n    owner = msg.sender;\n    //clients.push(_client);\n  }\n\n  function registerNewUser(string _name) returns (bool success) {\n    address thisNewAddress = msg.sender;\n    clients[thisNewAddress].name = _name;\n    clients[thisNewAddress].accounts[0] = Account({name:'annuity', amount:100000});\n    clients[thisNewAddress].accounts[1] = Account({name:'long term', amount:5000});\n    someTest[_name] = thisNewAddress;\n    return true;\n  }\n\n  function getUserDetail() returns (string,string,uint,string, uint)\n  {\n\n    address currAddress = msg.sender;\n    return (clients[currAddress].name,clients[currAddress].accounts[0].name,clients[currAddress].accounts[0].amount,clients[currAddress].accounts[1].name,clients[currAddress].accounts[1].amount);\n  }\n\n  enum Stages{\n    WaitingApproval,\n    RequestAccepted\n  }\n  uint public currentStageTime = now;\n\n  Stages public currentStage = Stages.WaitingApproval;\n\n  modifier onlyBy(address _account) {\n    require(msg.sender == _account);\n    _;\n  }\n\n  modifier atStage(Stages _stage) {\n    require(currentStage == _stage);\n    _;\n  }\n\n  function nextStage() internal {\n    uint next = uint(currentStage) + 1;\n    if (next > 1) next = 0;\n    currentStage = Stages(next);\n    currentStageTime = now;\n  }\n\n  function makeRequest(address _user, uint _amount, uint _from, uint _to)\n  public\n  atStage(Stages.WaitingApproval)\n  {\n    address userAddress = _user;\n    require(clients[userAddress].accounts[_from].amount- _amount>=0);\n    request = RequestTransfer({userAddress:_user,amount:_amount,from:_from,to:_to});\n    //wait for approval\n    nextStage();\n  }\n\n  function viewRequest() public onlyBy(owner) returns (address,string,uint, uint, uint)\n  {\n    return (request.userAddress, clients[request.userAddress].name,request.amount, request.from, request.to);\n  }\n\n\n  function approveRequest(bool approved)\n  public\n  onlyBy(owner)\n  atStage(Stages.RequestAccepted)\n  {\n    if(approved)\n    {\n      clients[request.userAddress].accounts[request.from].amount -= request.amount;\n      clients[request.userAddress].accounts[request.to].amount += request.amount;\n    }\n    delete request;\n    nextStage();\n  }\n\n}\n",
  "sourcePath": "/Users/chaitanyakaul/Desktop/newBegninning/newBlockChain/contracts/someSeriousStuff.sol",
  "compiler": {
    "name": "solc",
    "version": "0.4.18+commit.9cf6e910.Emscripten.clang"
  },
  "schemaVersion": "1.0.1",
  "updatedAt": "2018-01-13T16:36:54.557Z"
}